:0300000002089162
:0C089100787FE4F6D8FD75810A02086A41
:0A08B1004C59434F20534F465400AA
:06080000D2B17F017E0071
:10080600E4FDFCC3ED9FEE6480F8EC64809850151F
:10081600E4FBFA0BBB00010AEB64734A70F50DBDED
:0508260000010C80DE62
:01082B0022AA
:0A089D008FA0C2B0120800C2B12201
:0A08A7008FA0D2B0120800C2B122E7
:10082C008B088A09890AAB08AA09A90A120851601F
:10083C0013050AE50A7002050914F9120851FF1292
:05084C0008A780E22274
:0F0882007F3812089D7F0612089D7F0C02089D8B
:10086A00E4F5A0F5B01208827F8012089D7BFF7A1A
:08087A000879B112082C80F08E
:10085100BB010689828A83E0225002E722BBFE02A5
:09086100E32289828A83E49322D8
:00000001FF
